:100000001CC036C035C034C033C032C031C030C06F
:100010002FC02EC02DC02CC02BC02AC029C028C084
:1000200027C026C025C031C03CC047C052C05DC0FB
:1000300068C073C07EC089C094C011241FBECFE5C4
:10004000D4E0DEBFCDBF10E0A0E6B0E0EEE7F2E026
:1000500002C005900D92A036B107D9F710E0A0E6D6
:10006000B0E001C01D92A036B107E1F786D005C10E
:10007000C7CFFC018A3091050CF07EC08A30910513
:1000800008F07AC0ED5EFF4F09948CEF82BB80E1EF
:1000900097E229E130E0F9013197F1F70197D9F7BB
:1000A000089580E682BB80E197E229E130E0F90122
:1000B0003197F1F70197D9F708958AED82BB80E176
:1000C00097E229E130E0F9013197F1F70197D9F78B
:1000D000089582EF82BB80E197E229E130E0F901E7
:1000E0003197F1F70197D9F7089586E682BB80E151
:1000F00097E229E130E0F9013197F1F70197D9F75B
:10010000089586EB82BB80E197E229E130E0F901B6
:100110003197F1F70197D9F708958EEB82BB80E113
:1001200097E229E130E0F9013197F1F70197D9F72A
:10013000089580EE82BB80E197E229E130E0F90189
:100140003197F1F70197D9F708958EEF82BB80E1DF
:1001500097E229E130E0F9013197F1F70197D9F7FA
:10016000089586EF82BB80E197E229E130E0F90152
:100170003197F1F70197D9F708954F925F926F92F7
:100180007F928F929F92AF92BF92CF92DF92EF9227
:10019000FF920F931F93CF93DF938EE187BB8FEF77
:1001A00081BBC0E0D0E044ECE42E49E0F42E38E01E
:1001B000432E24E0522E92E0692E80E1782E24C056
:1001C00078BAC40156DFC7010197F1F748BAC501F3
:1001D00050DFC7010197F1F758BAC6014ADFC701DE
:1001E0000197F1F768BACE0144DFC7010197F1F733
:1001F0000F5F1F4F0233110519F7219687E2C031B7
:10020000D80714F0C0E0D0E0CE0168EE73E00ED065
:100210004B01CE0164E670E009D05B01CE016AE0DB
:1002200070E004D06B0100E010E0CACF97FB092E0C
:1002300007260AD077FD04D00CD006D000201AF48F
:10024000709561957F4F0895F6F7909581959F4F32
:100250000895AA1BBB1B51E107C0AA1FBB1FA6170D
:10026000B70710F0A61BB70B881F991F5A95A9F75F
:0E02700080959095BC01CD010895F894FFCFC4
:00000001FF
