:1000000012C02CC02BC02AC029C028C027C026C0BF
:1000100025C024C023C022C021C020C01FC01EC0D4
:100020001DC01CC01BC011241FBECFE5D4E0DEBF25
:10003000CDBF10E0A0E6B0E0ECEAF0E002C0059031
:100040000D92A036B107D9F710E0A0E6B0E001C0EC
:100050001D92A036B107E1F702D026C0D1CF8EE1C4
:1000600087BB80EF84BB68E15AE140E132E12CE0DC
:1000700083B390E08F7090708A30910511F468BB63
:100080000FC08230910511F438BBF2CF8430910556
:1000900011F448BBEDCF8630910511F458BBE8CF81
:0C00A000089731F728BBE4CFF894FFCF9D
:00000001FF
