:1000000012C02CC02BC02AC029C028C027C026C0BF
:1000100025C024C023C022C021C020C01FC01EC0D4
:100020001DC01CC01BC011241FBECFE5D4E0DEBF25
:10003000CDBF10E0A0E6B0E0E6E9F0E002C0059038
:100040000D92A036B107D9F710E0A0E6B0E001C0EC
:100050001D92A036B107E1F702D01BC0D1CF8FEFC0
:1000600087BB8EEF84BB81E090E020E030E002C0EF
:1000700081E090E0989B02C080E090E09899FACFF0
:10008000892BB1F72F5F3F4FC901880F991F88BB9C
:06009000EFCFF894FFCF52
:00000001FF
