:1000000012C02CC02BC02AC029C028C027C026C0BF
:1000100025C024C023C022C021C020C01FC01EC0D4
:100020001DC01CC01BC011241FBECFE5D4E0DEBF25
:10003000CDBF10E0A0E6B0E0E8EBF0E002C0059034
:100040000D92A036B107D9F710E0A0E6B0E001C0EC
:100050001D92A036B107E1F702D02CC0D1CF8EE1BE
:1000600087BB86EF84BB40E050E020E030E0E2E177
:100070007AE160E102C041E050E083B390E0897032
:1000800090708930910511F4E8BBF7CF8830910565
:1000900021F4452B81F768BBEECF8130910531F417
:1000A000232B09F478BB21E030E0E7CF892B29F737
:0800B00018BAE3CFF894FFCF6A
:00000001FF
