:1000000012C02CC02BC02AC029C028C027C026C0BF
:1000100025C024C023C022C021C020C01FC01EC0D4
:100020001DC01CC01BC011241FBECFE5D4E0DEBF25
:10003000CDBF10E0A0E6B0E0E0EBF0E002C005903C
:100040000D92A036B107D9F710E0A0E6B0E001C0EC
:100050001D92A036B107E1F702D028C0D1CF8EEFB4
:1000600087BB81E090E052E129E130E04CE002C042
:1000700081E090E0B09B0DC08130910551F458BBF8
:100080008FEF9FEFF9013197F1F70197D9F780E0F2
:1000900090E0B09BEFCF009769F748BB8FEF9FEFE1
:1000A000F9013197F1F70197D9F7E2CFF894FFCF33
:00000001FF
