:1000000012C02CC02BC02AC029C028C027C026C0BF
:1000100025C024C023C022C021C020C01FC01EC0D4
:100020001DC01CC01BC011241FBECFE5D4E0DEBF25
:10003000CDBF10E0A0E6B0E0EEEEF1E002C005902A
:100040000D92A036B107D9F710E0A0E6B0E001C0EC
:100050001D92A036B107E1F710D0C7C0D1CF20E084
:1000600030E040E050E005C0FA013197F1F72F5F32
:100070003F4F28173907C4F308950F931F938EE15C
:1000800087BB86EF84BBA1E0B0E002E1F0E112E0C3
:1000900083B390E023B330E02170307050E0BC01B6
:1000A0006870707083FD51E040E02130310509F443
:1000B00041E0552311F0411108BB80E06115710545
:1000C00019F481E04111F8BBE0E02115310509F494
:1000D000E1E0552311F0E11118BB40E050E0A13000
:1000E000B10511F441E050E08E2390E048235923FC
:1000F000452B39F0F8BB6FE770E02FE730E0A2E066
:10010000B0E080E06115710509F481E090E021150F
:10011000310509F491E0892390E040E050E0A230FD
:10012000B10511F441E050E084239523892B39F087
:1001300018BB6FE770E02FE730E0A3E0B0E080E0AD
:100140006115710509F481E090E02115310509F48C
:1001500091E0892390E040E050E0A330B10511F434
:1001600041E050E084239523892B39F0F8BB6FE7F9
:1001700070E02FE730E0A4E0B0E080E061157105A9
:1001800009F481E090E02115310509F491E089231B
:1001900090E040E050E0A430B10511F441E050E0BF
:1001A00084239523892B39F008BB6FE770E02FE794
:1001B00030E0A5E0B0E080E0672B09F481E090E05A
:1001C000232B09F491E0892390E020E030E0A53072
:1001D000B10511F421E030E082239323892B09F447
:0E01E00057CF18BA80E090E000D0F894FFCF1F
:00000001FF
