:1000000012C02CC02BC02AC029C028C027C026C0BF
:1000100025C031C023C022C021C020C01FC01EC0C7
:100020001DC01CC01BC011241FBECFE5D4E0DEBF25
:10003000CDBF10E0A0E6B0E0E0EBF0E002C005903C
:100040000D92A036B107D9F710E0A0E6B0E001C0EC
:100050001D92A136B107E1F702D028C0D1CF8FEFB2
:1000600087BB85E083BF89B7816089BF12BE1092CC
:1000700060007894FFCF1F920F920FB60F92112459
:100080008F9380916000863E31F488B3809588BB61
:100090001092600005C0809160008F5F80936000C7
:1000A0008F910F900FBE0F901F901895F894FFCF6F
:00000001FF
