:100000000C941A000C9438000C9438000C943800AE
:100010000C9438000C9438000C9438000C94380080
:100020000C9438000C9438000C9438000C94380070
:100030000C94380011241FBECFE5D2E0DEBFCDBF47
:1000400010E0A0E6B0E0E2E8F0E003C0C895319629
:100050000D92A036B107D1F710E0A0E6B0E001C0E4
:100060001D92A036B107E1F70E943A000C943F00C0
:100070000C940000DF93CF93CDB7DEB7FFCFF89499
:02008000FFCFB0
:00000001FF
