:1000000029C0000042C0000040C000003EC0000007
:100010003CC000003AC0000038C0000036C00000FC
:1000200034C0000032C0000030C000002EC000000C
:100030002CC000002AC0000028C0000026C000001C
:1000400024C0000022C0000020C000001EC000002C
:100050001CC0000011241FBECFE5D4E0DEBFCDBF21
:1000600010E0A0E6B0E0ECE8F2E002C005900D92EE
:10007000A036B107D9F710E0A0E6B0E001C01D92AC
:10008000A036B107E1F7CDD0FFC0BACFDA9A00C0F1
:10009000DA980895CF93662311F0D89A01C0D898C2
:1000A000D998D49AD59AD69AD79ADF98DE98DD98BF
:1000B000DC9888230CF4DF9AC82F86FDDE9AC5FDF4
:1000C000DD9AC4FDDC9AE2DFDF98DE98DD98DC98EB
:1000D000C3FDDF9AC2FDDE9AC1FDDD9AC0FDDC9A48
:1000E000D5DFDC9ADD9ADE9ADF9ACF9108958823D6
:1000F00011F0D89A01C0D898D99AD498D598D698A2
:10010000D798DA9A00C0CC9902C080E001C080E1A3
:10011000CD998062CE998064CF998068DA9800C0CA
:10012000DA9A00C0CC998160CD998260CE998460C2
:10013000CF998860DA98089580E0D9DF8823E4F3C6
:1001400000C080E0D4CFCF93C82FF6DF8C2F60E0C3
:10015000A1DFCF910895662311F48058F4CF805425
:10016000F2CF81E0F0CFCF93C82FE6DFCA3041F461
:10017000803410F480E401C080E08058E4DF03C0E4
:100180008C2F61E087DFCF9108951F93CF93DF938A
:10019000182FD09AD19AD29AD49AD59AD69AD79A19
:1001A00080EA9FE00197F1F7DD9ADC9A6FDF80EE3D
:1001B00094E00197F1F76ADFC0E1D0E0CE0101974A
:1001C000F1F764DFCE010197F1F7DC985FDF21974B
:1001D000F1F788E2B8DF88E0B6DFC3DF86E0B3DF9F
:1001E000812FB1DFDF91CF911F91089589B910BCA4
:1001F00086E880BD88E18AB908955F9BFECF8CB107
:1002000090E00895E199FECF9FBB8EBBE09A8DB33D
:100210000895E199FECF9FBB8EBB6DBBE29AE19A38
:1002200008958FEF8ABB87BB83E390E0DFDF8CE02C
:10023000ACDF80E090E0E6DF8F3F69F080E090E0A7
:10024000E1DF91DF81E090E0DDDF8F3FD9F781E0F2
:1002500090E0D8DF88DF80E060E07DDFEE24FF24DF
:10026000CCDF182FE7012196C701612FD2DF812F44
:100270007ADF8FE39DE0A3E081509040A040E1F75A
:0C02800000C000007E01ECCFF894FFCF1E
:00000001FF
