:100000001CC036C035C034C033C032C031C030C06F
:100010002FC02EC02DC02CC02BC02AC029C028C084
:1000200027C026C025C04BC055C05DC065C06DC08F
:1000300075C07DC085C08DC095C011241FBECFE5A1
:10004000D4E0DEBFCDBF10E0A0E6B0E0E6E8F1E02E
:1000500002C005900D92A036B107D9F710E0A0E6D6
:10006000B0E001C01D92A036B107E1F702D089C00F
:10007000C7CFCF92DF92EF92FF920F931F938EEF35
:1000800081BB8EE187BB88BB40E050E07CEFC72E90
:1000900029E130E066EFD62E9EEFE92E80EEF82EB5
:1000A0000EEB16EBB6E6A2EF7AED60E665C0FA015C
:1000B0004A30510508F05EC0ED5EFF4F0994C2BAA8
:1000C00080E197E2F9013197F1F70197D9F740E024
:1000D00050E050C062BB80E197E2F9013197F1F73F
:1000E0000197D9F747C072BB80E197E2F9013197D8
:1000F000F1F70197D9F73EC0A2BB80E197E2F90181
:100100003197F1F70197D9F735C0B2BB80E197E29B
:10011000F9013197F1F70197D9F72CC012BB80E1B3
:1001200097E2F9013197F1F70197D9F723C002BBA4
:1001300080E197E2F9013197F1F70197D9F71AC0F9
:10014000F2BA80E197E2F9013197F1F70197D9F717
:1001500011C0E2BA80E197E2F9013197F1F7019716
:10016000D9F708C0D2BA80E197E2F9013197F1F7E7
:100170000197D9F74F5F5F4F4A3051050CF09FCF81
:0601800096CFF894FFCFBA
:00000001FF
