:1000000026C040C03FC03EC03DC03CC03BC03AC01F
:1000100039C038C037C036C035C034C033C032C034
:1000200031C030C02FC072C073C074C075C076C0FC
:1000300077C078C079C07AC07BC095C096C097C0A1
:1000400098C099C09AC09BC09CC09DC09EC01124FE
:100050001FBECFE5D4E0DEBFCDBF10E0A0E6B0E02C
:10006000ECE2F2E002C005900D92A036B107D9F79C
:1000700010E0A0E6B0E001C01D92A036B107E1F7A4
:1000800002D0D2C0BDCF2F923F924F925F926F921B
:100090007F928F929F92AF92BF92CF92DF92EF9218
:1000A000FF920F931F93CF93DF938FEF81BB8EE16E
:1000B00087BB01E010E086EF582EC0EDD7E0BEEF21
:1000C0006B2EA0EE7A2EFEEB8F2EE6EB9E2E76E6C2
:1000D000A72E62EFC62E5AEDB52E40E6D42E4CEF79
:1000E00032E0232E29E1E22EF12C24EC39E094E0D9
:1000F000392E86E0482EC8016AE070E06ED0FC011F
:100100008A309105C8F4ED5EFF4F099442BB11C0DF
:10011000D2BA0FC0B2BA0DC0C2BA0BC0A2BA09C0DF
:1001200092BA07C082BA05C072BA03C062BA01C0EF
:1001300052BACE010197F1F728BA88E59BE1F701A1
:100140003197F1F70197D9F7C8016AE070E045D01F
:10015000CB016AE070E041D0FC018A309105C8F41F
:10016000E35EFF4F099442BB11C0D2BA0FC0B2BACE
:100170000DC0C2BA0BC0A2BA09C092BA07C082BAF7
:1001800005C072BA03C062BA01C052BAC901019770
:10019000F1F738BA88E59BE1F7013197F1F701975C
:1001A000D9F748BA0F5F1F4F0436110509F0A3CFE6
:1001B00080E090E0DF91CF911F910F91FF90EF9041
:1001C000DF90CF90BF90AF909F908F907F906F9077
:1001D0005F904F903F902F90089597FB092E072630
:1001E0000AD077FD04D00CD006D000201AF4709508
:1001F00061957F4F0895F6F7909581959F4F0895EB
:10020000AA1BBB1B51E107C0AA1FBB1FA617B7073C
:1002100010F0A61BB70B881F991F5A95A9F7809558
:0C0220009095BC01CD010895F894FFCF2B
:00000001FF
