:1000000012C02CC02BC02AC029C028C027C026C0BF
:1000100025C024C023C022C021C020C01FC01EC0D4
:100020001DC01CC01BC011241FBECFE5D4E0DEBF25
:10003000CDBF10E0A0E6B0E0E8E2F1E002C005903C
:100040000D92A036B107D9F710E0A0E6B0E001C0EC
:100050001D92A036B107E1F702D064C0D1CF8EE186
:1000600087BB86EF84BB4CE029E130E050E172E1D0
:1000700062E083B390E0897090700097C1F448BB50
:100080008FEF9FEFF9013197F1F70197D9F758BB3F
:100090008FEF9FEFF9013197F1F70197D9F78FEFC4
:1000A0009FEFF9013197F1F70197D9F7E2CF883047
:1000B0009105C1F448BB8FEF9FEFF9013197F1F73C
:1000C0000197D9F758BB8FEF9FEFF9013197F1F7FF
:1000D0000197D9F78FEF9FEFF9013197F1F701976A
:1000E000D9F7C7CF81309105C1F448BB8FEF9FEF9F
:1000F000F9013197F1F70197D9F768BB8FEF9FEFBF
:10010000F9013197F1F70197D9F78FEF9FEFF901D7
:100110003197F1F70197D9F7ACCF099709F0A9CF3B
:0801200078BBA7CFF894FFCFD4
:00000001FF
