:1000000012C02CC02BC02AC029C028C027C026C0BF
:1000100025C024C023C022C021C020C01FC01EC0D4
:100020001DC01CC01BC011241FBECFE5D4E0DEBF25
:10003000CDBF10E0A0E6B0E0E8E6F2E002C0059037
:100040000D92A237B107D9F710E0A2E7B0E001C0E6
:100050001D92A237B107E1F7DBD004C1D1CF6623EF
:1000600011F0A89A01C0A898A998A49AA59AA69A4E
:10007000A79AAF98AE98AD98AC9887FDAF9A86FDD9
:10008000AE9A85FDAD9A84FDAC9AAA9A00C0AA9852
:10009000AF98AE98AD98AC9883FDAF9A82FDAE9ABA
:1000A00081FDAD9A80FDAC9AAA9A00C0AA98AC9A3C
:1000B000AD9AAE9AAF9A0895882311F0A89A01C01C
:1000C000A898A99AA498A598A698A798AA9A00C0B3
:1000D0009C9B02C080E101C080E09D9980629E9956
:1000E00080649F998068AA9800C0AA9A00C09C99D1
:1000F00081609D9982609E9984609F998860AA988A
:10010000089580E0D9DF87FDFCCF00C080E0D4DF18
:1001100008951F93182FF5DF812F60E0A0DF1F9156
:1001200008951F93182FEDDF812F61E098DF1F9155
:100130000895662311F4805801C08054EADF0895C1
:10014000E0DF90E0089581E0E4DF089582E0E1DF00
:1001500008951F93182FD5DF1A3041F4803410F022
:1001600080E001C080E48058D4DF03C0812F61E0CB
:1001700076DF1F910895CF93DF93EC0101C0E9DF93
:1001800089918823E1F7DF91CF910895CF93DF9391
:10019000EC0101C0DEDFFE01219684918823D1F7B6
:1001A000DF91CF9108951F93182FA09AA19AA29A38
:1001B000A49AA59AA69AA79A80EA9FE00197F1F7D8
:1001C000AD9AAC9AAA9A00C0AA9880EE94E00197E2
:1001D000F1F7AA9A00C0AA9880E190E0FC0131975B
:1001E000F1F7AA9A00C0AA98FC013197F1F7AC98F0
:1001F000AA9A00C0AA980197F1F788E28ADF88E0FE
:1002000088DFA1DF86E085DF812F83DF1F910895DE
:100210000F931F93CF93DF938CE0C5DF0CE211E0C7
:1002200080E690E0A8DF84EF91E0F8013197F1F7E4
:100230000197D9F7C0E0D0E088E16BDF88E893E16F
:10024000F8013197F1F70197D9F72196CF30D10511
:1002500099F779DF84EF91E0F8013197F1F7019791
:08026000D9F7DECFF894FFCFBF
:1002680020202048656C6C6F20576F726C642120C9
:02027800200064
:00000001FF
