S01700004763634170706C69636174696F6E332E7372656359
S11300000C942A000C9447000C9447000C9447006D
S11300100C9447000C9447000C9447000C94470040
S11300200C9447000C9447000C9447000C94470030
S11300300C9447000C9447000C9447000C94470020
S11300400C9447000C9447000C9447000C94470010
S11300500C94470011241FBECFE5D4E0DEBFCDBF12
S113006010E0A0E6B0E0EAE0F1E002C005900D92F5
S1130070A036B107D9F710E0A0E6B0E001C01D92A8
S1130080A036B107E1F70E9449000C9483000C9458
S113009000008FEF87BBE9E03AE02CE096E088E0CF
S11300A0E8BB4FE35DE063E0415050406040E1F75E
S11300B000C0000038BB4FE35DE063E041505040B6
S11300C06040E1F700C0000028BB4FE35DE063E05F
S11300D0415050406040E1F700C0000098BB4FE33E
S11300E05DE063E0415050406040E1F700C0000033
S11300F088BB4FE35DE063E0415050406040E1F76E
S10D010000C00000CDCFF894FFCF3B
S9030000FC
