:1000000012C02CC02BC02AC029C028C027C026C0BF
:1000100025C024C023C022C021C020C01FC01EC0D4
:100020001DC01CC01BC011241FBECFE5D4E0DEBF25
:10003000CDBF10E0A0E6B0E0EEE9F0E002C0059030
:100040000D92A036B107D9F710E0A0E6B0E001C0EC
:100050001D92A036B107E1F702D01FC0D1CF8EE1CB
:1000600087BB86E784BB58E142E130E12AE183B3F4
:1000700090E089709070009711F458BBF8CF8130F0
:10008000910511F428BBF3CF8830910511F438BBEA
:0E009000EECF099761F748BBEACFF894FFCF97
:00000001FF
