:1000000012C02CC02BC02AC029C028C027C026C0BF
:1000100025C024C023C022C021C020C01FC01EC0D4
:100020001DC01CC01BC011241FBECFE5D4E0DEBF25
:10003000CDBF10E0A0E6B0E0E8E2F1E002C005903C
:100040000D92A036B107D9F710E0A0E6B0E001C0EC
:100050001D92A036B107E1F702D064C0D1CF8EE186
:1000600087BB86EF84BB72E14CE029E130E05AE1C6
:1000700060E183B390E089709070009711F478BBD1
:10008000F8CF88309105C1F448BB8FEF9FEFF9019D
:100090003197F1F70197D9F758BB8FEF9FEFF9012F
:1000A0003197F1F70197D9F78FEF9FEFF90131976A
:1000B000F1F70197D9F7DDCF81309105C1F448BB45
:1000C0008FEF9FEFF9013197F1F70197D9F768BBEF
:1000D0008FEF9FEFF9013197F1F70197D9F78FEF84
:1000E0009FEFF9013197F1F70197D9F7C2CF09973F
:1000F00009F0BFCF48BB8FEF9FEFF9013197F1F7C0
:100100000197D9F758BB8FEF9FEFF9013197F1F7BE
:100110000197D9F78FEF9FEFF9013197F1F7019729
:08012000D9F7A7CFF894FFCF37
:00000001FF
