:1000000012C02CC02BC02AC029C028C027C026C0BF
:1000100025C024C023C022C021C020C01FC01EC0D4
:100020001DC01CC01BC011241FBECFE5D4E0DEBF25
:10003000CDBF10E0A0E6B0E0E6E2F2E002C005903D
:100040000D92A836B107D9F710E0A8E6B0E001C0DC
:100050001D92A836B107E1F7DBD0E3C0D1CF66230C
:1000600011F0909A01C0909891988C9A8D9A8E9ADE
:100070008F9A979896989598949887FD979A86FD69
:10008000969A85FD959A84FD949A929A00C09298CA
:10009000979896989598949883FD979A82FD969A4A
:1000A00081FD959A80FD949A929A00C09298949AB4
:1000B000959A969A979A0895882311F0909A01C07C
:1000C0009098919A8C988D988E988F98929A00C05B
:1000D000849B02C080E101C080E08599806286999E
:1000E000806487998068929800C0929A00C0849931
:1000F00081608599826086998460879988609298EA
:10010000089580E0D9DF87FDFCCF00C080E0D4DF18
:1001100008951F93182FF5DF812F60E0A0DF1F9156
:1001200008951F93182FEDDF812F61E098DF1F9155
:100130000895662311F4805801C08054EADF0895C1
:10014000E0DF90E0089581E0E4DF089582E0E1DF00
:1001500008951F93182FD5DF1A3041F4803410F022
:1001600080E001C080E48058D4DF03C0812F61E0CB
:1001700076DF1F910895CF93DF93EC0101C0E9DF93
:1001800089918823E1F7DF91CF910895CF93DF9391
:10019000EC0101C0DEDFFE01219684918823D1F7B6
:1001A000DF91CF9108951F93182F889A899A8A9A80
:1001B0008C9A8D9A8E9A8F9A80EA9FE00197F1F738
:1001C000959A949A929A00C0929880EE94E0019742
:1001D000F1F7929A00C0929880E190E0FC0131978B
:1001E000F1F7929A00C09298FC013197F1F7949838
:1001F000929A00C092980197F1F788E28ADF88E02E
:1002000088DFA1DF86E085DF812F83DF1F910895DE
:100210008CE0C9DF98DF80E690E0ADDF80E090E021
:060220000895F894FFCFE1
:0802260048454C4C4F57000005
:00000001FF
