:100000000C9446000C9466000C9466000C946600F8
:100010000C9466000C9466000C9466000C946600C8
:100020000C9466000C9466000C9466000C946600B8
:100030000C9466000C9466000C9466000C946600A8
:100040000C9466000C9466000C9466000C94660098
:100050000C9466000C9466000C9466000C94660088
:100060000C9466000C9466000C9466000C94660078
:100070000C9466000C9466000C9466000C94660068
:100080000C9466000C9466000C94660011241FBE4C
:10009000CFEFD0E1DEBFCDBF11E0A0E0B1E0E2EEF6
:1000A000F0E000E00BBF02C007900D92A030B10756
:1000B000D9F71BBE11E0A0E0B1E001C01D92A03055
:1000C000B107E1F70E9468000C946F000C940000E7
:1000D00087EF87BB81E788BB80E090E00895F894C4
:0200E000FFCF50
:00000001FF
